:020000041000EA
:1000000000B5324B212058609868022188439860DF
:10001000D860186158612E4B002199600221596106
:100020000121F02299502B49196001219960352056
:1000300000F044F80222904214D00621196600F024
:1000400034F8196E01211966002018661A6600F04E
:100050002CF8196E196E196E052000F02FF8012189
:100060000842F9D1002199601B49196000215960AB
:100070001A491B48016001219960EB211966A021F2
:10008000196600F012F800219960164914480160C1
:100090000121996001BC002800D000471248134993
:1000A000086003C880F30888084703B5996A0420EC
:1000B0000142FBD001200142F8D103BD02B5186610
:1000C0001866FFF7F2FF186E186E02BD00000240BE
:1000D000000000180000070000035F00212200005C
:1000E000F4000018222000A00001001008ED00E03C
:1000F00000000000000000000000000074B24E7A12
:1001000000200420F7010010C3010010C5010010F9
:10011000C1010010C1010010C1010010C101001097
:10012000C1010010C1010010C1010010C701001081
:10013000C1010010C1010010C9010010CB01001065
:10014000CD010010CD010010CD010010CD01001037
:10015000CD010010CD010010CD010010CD01001027
:10016000CD010010CD010010CD010010CD01001017
:10017000CD010010CD010010CD010010CD01001007
:10018000CD010010CD010010CD010010CD010010F7
:10019000CD010010CD010010CD010010CD010010E7
:1001A000CD010010CD010010CD010010CD010010D7
:1001B000CD010010CD010010CD010010CD010010C7
:1001C00000BE00BE00BE00BE00BE00BE00F04BF888
:1001D000103800BEF2EB8871F822011020230110C4
:1001E0003402001090A31AE700202149086006C8D5
:1001F00081F3088810471F48006800282FD10DA4FC
:100200000ECC002902D000F012F8F9E71A491B4A77
:10021000002000E001C19142FCD1194988471949E9
:1002200088471949884700BEFDE701C901C29A42C3
:10023000FBD3704720230110C0000020541C002075
:10024000B43E01100000042000000420B43E011060
:1002500000100420001004200000000070470B482C
:1002600003F076FB0047EFF30580C0B27047000053
:1002700008ED00E0000000D0581C00200022002003
:10028000A91F001049050010651F001057560000F7
:1002900006005250ABB36053BCCF00100600525062
:1002A000861C0302C4CF0010060052505422A29DA7
:1002B000D4CF001005005250DE65F468B43E011042
:1002C000F8B5C0460448054B10B5834203D0044B33
:1002D000002B00D0984710BD541C0020541C002057
:1002E0000000000006480749091A8910CB0F591869
:1002F00010B5491003D0044B002B00D0984710BD17
:10030000541C0020541C00200000000010B5074CB5
:100310002378002B09D1FFF7D5FF054B002B02D026
:10032000044800E000BF0123237010BD581D0020C9
:100330000000000030C10010054B10B5002B03D0A9
:100340000449054800E000BFFFF7CCFF10BDC046E0
:10035000000000005C1D002030C1001010B5122804
:100360000ED014280CD0112826D0152824D0274BC5
:100370001B78102B40D0254B1B78202B41D010BD73
:10038000234809F061F8214B18701B78002BEED040
:100390001E4B1B78DBB2102B08D0202BE7D101239A
:1003A0005B421C4A13601C4A1360E0E70123194AB0
:1003B0001360194A1360DAE7184809F045F8134B3F
:1003C00018701B78002BD2D0104B1B78DBB2102B8F
:1003D0000AD0202BCBD1124A1368013B1360114B7A
:1003E000012252421A60C2E70D4A136801331360BA
:1003F0000C4B01221A60BAE70B4A136801331360F1
:10040000B9E7094A1368013B1360B8E7F31F0020FE
:10041000B41F0020BC1F0020941F0020A01F00203C
:10042000A81F0020AC1F0020481F002010B50B683B
:10043000002B0CDB934205D95200934202D20A6092
:10044000002A07DB0868013009F04AFF10BD0348A5
:100450000AF0FCFE024B0B60F4E7C0466CC10010D2
:10046000FFFFFF7F70B582B005000E1E0DD0941BFC
:1004700001940F2C0ED82868012C14D0002C14D015
:100480002200310004F0EAFB0FE09142EFD00B486C
:100490000AF0C4FE002201A92800FFF7C7FF286068
:1004A000019BAB60E7E733780370019A6A602B68C1
:1004B0009B1800221A7002B070BDC04640C10010E7
:1004C00070B582B005000E1E0DD0941B01940F2C48
:1004D0000ED82868012C14D0002C14D02200310032
:1004E00004F0BCFB0FE09142EFD00B480AF096FEFF
:1004F000002201A92800FFF799FF2860019BAB604B
:10050000E7E733780370019A6A602B689B18002232
:100510001A7002B070BDC04640C1001070B5050031
:100520000C0003000833036000290AD008000BF018
:10053000D1FB2218002321002800FFF7C1FF28006B
:1005400070BD4A1EF6E7000010B5DA4CA54404F071
:10055000D9FC0521002000F09FFA0521012000F0C0
:100560009BFA0521022000F097FA0521032000F0F4
:1005700093FA05210A2000F08FFA05210B2000F0E4
:100580008BFA0521132000F087FAD0231B060122E5
:100590005A6201325A6202325A629A6104325A62D3
:1005A0009A618022D2009A62802212019A6280228D
:1005B00012035A629A61002201210A2000F084FA93
:1005C000002201210B2000F07FFABB48684409F0AB
:1005D0006FFBB94A6A44F423D058052100F05CFA55
:1005E0000FE0B64C6C44B44B6B449C4200D1F4E138
:1005F000183C2068230008339842F4D00AF068FDC4
:10060000F1E7AD486844F42101231C0042589440AE
:10061000D0221206546241588B40536101235B4241
:1006200010220D21A648684404F046FE02E0A34CC7
:100630006C44D8E7A248684405F082FB02E09F4C76
:100640006C44D0E700219E48684404F09BFD02E022
:100650009A4C6C44C7E703219948684404F0BEFDF6
:1006600002E0964C6C44BEE700219548684404F0D3
:1006700043FF02E0914C6C44B5E78F4969449148CF
:10068000684408F027FF02E08C4C6C44ABE78D48CF
:10069000684408F02DFF02E0884C6C44A3E78948C9
:1006A000684408F070FF02E0844C6C449BE7824889
:1006B000684409F085FA02E0804C6C4493E701231A
:1006C000039305220292013A019200930023033A18
:1006D000794969447C48684406F07AFA02E0774C2C
:1006E0006C4480E7162300930A3B052204217748D7
:1006F000684406F051FB02E0704C6C4473E77348A9
:10070000684406F075FB02E06C4C6C446BE7704883
:10071000684406F043FC02E0684C6C4463E7664BB7
:100720006B440293674B6B440193674B6B4400939C
:10073000674B6B44654A6A446149694404A807F001
:10074000B5F802E05D4C6C444DE7012104A807F0C8
:1007500011F8604B6B44604A6A4413605F4B196840
:100760005A688A1800235C486844FFF77BFE5C4B9C
:100770006B445C4A6A4413605B4B19685A688A1878
:10078000002358486844FFF76DFE564A6A445249B0
:10079000694404A806F01AFD524B6B441868504B8C
:1007A0006B44984201D00AF093FC4B4B6B441868A1
:1007B000484B6B44984201D00AF08AFC4B4801F048
:1007C00089F800213E48684404F096FE0022012189
:1007D000474808F0FEFD00220121464808F0F9FDD7
:1007E000454B00221A60454B01320C21112000F0CC
:1007F000BBF9424B01220C21122000F0B5F93F4B0E
:1008000001220C21142000F0AFF93C4B01220C21F5
:10081000152000F0A9F92B48684408F0CEFE384BAB
:1008200018601E2811D0282809D0142814D0354A61
:100830006A44354935486844FFF770FE13E0344B8D
:10084000344A6A4412681A60F1E7314B9C22520123
:100850006A4412681A60EAE7174A6A449023D25839
:100860002B4B1A60E3E72949694404A806F0C8FE47
:10087000264B6B441868284B6B44984201D00AF011
:1008800027FC1148684406F0F9F900210F48684434
:1008900006F040FB0E48684406F0A6FB1C4B1968A6
:1008A0000A48684406F036FB00231E931B4A136077
:1008B00054E0C046A8EBFFFF0813000050130000EF
:1008C000D0120000B81100003811000024110000FF
:1008D0000C110000141400000C140000CC1D0020AA
:1008E0002C14000024140000B41D00208813000004
:1008F000B41F0020A01F0020481F00205D0300102F
:100900004C1F00205414000084C100103C1400004F
:10091000501F00207013000044140000EC1F002042
:100920001E9904A806F05EFD2D48684406F0B2FB4F
:10093000011C2C4B6B441A6804A806F0DBFD002157
:1009400004A806F017FF1E9904A806F0BDFC1E902F
:1009500001280CD002280ED0002804D0012104A8C0
:1009600006F008FFDCE704A808F0DCF9F6E704A8C5
:1009700007F09AFEF2E704A808F0E2FBEEE71A4B54
:100980006B441868194B6B44984201D00AF0A0FBE5
:10099000174B6B441868174B6B44984201D00AF010
:1009A00097FB34AC22AB9C4214D0183C2068230047
:1009B00008339842F6D00AF08BFBF3E7E8E70E4BDA
:1009C0006B4418680D4B6B449842EAD00AF080FBE8
:1009D000E7E7E6E70A4C6C4405E60AF0EDF9C046A5
:1009E0000C11000034110000241400002C1400002D
:1009F0000C140000141400003C1400004414000007
:100A00005013000030B583B004000D00012806D05B
:100A1000002C02D1154B9D4219D003B030BD134BB1
:100A20009942F5D16A4612491248FFF777FD01AAAB
:100A300011491248FFF772FD12221421104808F0E4
:100A4000C2FC112215210F4808F0BDFCE0E70B4B5A
:100A500018680833984201D00AF03AFB054B186831
:100A600008339842D9D00AF033FBD6E7FFFF0000E5
:100A700030C10010CC1D002038C10010B41D002072
:100A8000B41F0020A01F002010B502490120FFF76D
:100A9000B9FF10BDFFFF000010B58300084A94465F
:100AA00063441C6840226240C024144080225201EA
:100AB00013431C60C000034B9C466044416010BD62
:100AC00004C001400040014080000B4B9C46604444
:100AD00000290DD00823002A0CD0042213430268F9
:100AE00053400C2213408022520110430360704790
:100AF0000023F0E70022F1E704C001400723034090
:100B00009B00C00899403C308000014BC1507047A9
:100B100000400140F8B507000C0016001D00FFF76B
:100B2000EDFFFB089B00ED18072038408000844053
:100B3000002E04D080239B011D432C60F8BDC023F0
:100B40009B011D432C60F9E710B5D0231B061B68E1
:100B5000002B03D0024BFFF7DDFF10BD014BFAE77E
:100B6000304101400041014010B51C00FFF7ECFF8F
:100B7000D0231B061B689B00054A9C5005490D208D
:100B800001F024FC01210D2001F010FC10BDC04635
:100B9000081E0020990B001070B5D0231B061B689F
:100BA000002B02D0124D002402E0124DFBE701346D
:100BB0001D2C1BD8E30808339B005E5907232340F4
:100BC0009B00DE4033000F261E40F0D03100200095
:100BD000FFF794FFD0231B061B689B00064A9B5817
:100BE000002BE4D0310020009847E0E770BDC046FC
:100BF0003041014000410140081E0020002909D079
:100C00008000094B9C46604480239B01184340238D
:100C1000036070478000044B9C466044C0239B01E6
:100C2000184340230360F4E704C0014010B50123DA
:100C30008340D0221206936293610521FFF72CFFB7
:100C400010BD0000EFF3108072B6034B1B68002B41
:100C5000FBD0BFF35F8F70472C0100D0BFF35F8FD5
:100C6000024B00221A6080F3108870472C0100D0DC
:100C700070B505000E001400FFF7E4FFF208AA1893
:100C800015780721314001238B402B4205D1DBB27F
:100C90002B431370FFF7E2FF70BD3100200001F01D
:100CA000FFF90000034B1B6802201840431E9841C7
:100CB000C0B2704700C0064000231F2B08D8054A69
:100CC0009A189200BFF35F8F002111600133F4E79F
:100CD0007047C04640000034054A1078431CDBB220
:100CE0001370172B02D9130010221A707047C046D8
:100CF0003013002070B505000C00062001F0E6FA64
:100D0000C000210002F078FEC60908D00E4B9E42BA
:100D100017D87F23184001303400460800E0012432
:100D20006C62AE622C3580239B011D4300232B6037
:100D3000062001F0CBFA8000A101891902F05CFEC7
:100D400070BD0026014CEBE7FEFF0000FFFF000036
:100D5000002909D00A22064B9C4660444342584170
:100D60004000044BC252704780225200F3E7C04655
:100D70000080FCBFF81F002070B505000C000620A5
:100D800001F0A4FA002829D0164B9D4227D08022DA
:100D9000D203154B1A60154B1A60154B9B68110056
:100DA0009943FAD100212800FFF7D2FF2100280043
:100DB000FFF7A0FF2C002C34E96A60224A406E2124
:100DC000114080225201224311600A4B2B63802381
:100DD0009B01234310221A600323AB6470BD802261
:100DE0001204D6E70080034000E0004000F000401D
:100DF00000C00040010300000A4B1A68EFF31081A5
:100E000072B61368002BFCD0BFF35F8F054B1B68D5
:100E1000BFF35F8F00221A6081F3108840BF00206B
:100E200000217047D41F002070B505000C00080099
:100E300000F0F0FC200000F021FE0849200000F046
:100E400061FDFFF749FF064B9C46604480006860E7
:100E50002C75A400034BE55070BDC046491100102D
:100E600040000034C01F002010B5002922D00368C4
:100E70001B7B99421ED8174B9C466144090183682D
:100E80009C4661440C684968002A19D003681B7BA2
:100E90009A4215D883680F488446624412019A1812
:100EA00010685368020001208B4201D80ED0002048
:100EB000C0B210BD084B094A3B21094801F056F861
:100EC000054B064A3B21064801F050F8A242EFD8F4
:100ED000EDE7C046FFFFFF0F7CC3001000C200100B
:100EE00080C4001010B500291ED0037B99421BD886
:100EF0004B005B18033B0468A4466344002919D0E7
:100F0000002A1DD0914221D0002A25D0047BA24284
:100F100022D804685000801803382018817019788E
:100F200000291FD11A7010BD104B114A69211148B8
:100F300001F01CF8104B114A70310E4801F016F800
:100F40000F4B0E4A71210B4801F010F80D4B0B4A64
:100F50007221084801F00AF8044B054A6921054846
:100F600001F004F841701A70DDE7C046D4C30010E8
:100F7000C0C10010F0C300103CC40010CCC1001070
:100F800048C4001054C4001070B506000D001400D1
:100F9000002914D0002A14D080687368984700286C
:100FA00006D0220029003000FFF79CFF280007E050
:100FB0002A0021003000FFF795FF200000E010001C
:100FC00070BD0800FCE7000070B5CE4600B583B0E8
:100FD0000500009201930AAB1C780BAB1B78994675
:100FE000002C28D003685A7B944209D10123002B9E
:100FF0001BD1002C3DD1200003B004BC914670BD34
:10100000002C0CD01A7B944209D81A6863001B1973
:10101000033BD3189B78002BE9D00123E7E73F4B34
:101020003F4A69213F4800F0A1FF3F4B3F4A6521FD
:101030003F4800F09BFF03689C7B002CD9D012D066
:101040001A7B94420FD862001219033A19688C4631
:10105000624451789973002900D1D97300239370A9
:1010600053701370C5E72D4B2D4A69212D4800F0B0
:101070007DFF002C3BD02B681B7B9C4237D82D4B2F
:10108000E3181B01AA68944663440099019A196009
:101090005A60089A9A60099ADA602E68002C2CD05F
:1010A00031D0337B9C422ED863001B19033B32683E
:1010B0009446634400229A705A701A70717B220021
:1010C0003000FFF761FF7073844200D093E7287D02
:1010D000009A019B00F05EFC061E02D04B46002BDE
:1010E00017D00C9B002B00D185E71E7083E7124BB5
:1010F000124A3B210E4800F039FF114B114AA6213C
:10110000084800F033FF054B054A6921054800F007
:101110002DFF2868210000F08BFEE2E7D4C3001009
:10112000C0C10010F0C300106CC2001038C2001023
:1011300080C40010FFFFFF0F7CC3001000C200102E
:101140007CC40010E0C10010F0B5DE4657464E46A4
:101150004546E0B58BB00990002308938200B24B5E
:10116000D7583D0052E0B14BB14A3F21B14800F0A1
:10117000FDFEB14BB14A3B21B14800F0F7FE002B18
:1011800001D1002A68D10021604600F047FEA0424C
:1011900019D13268736806920793B3689846F3686A
:1011A0009A464346002B14D0002C18D02B681B7B8A
:1011B0009C4214D8631EEA68D35C08931B02184350
:1011C0002861002015E09F4B9F4A8C219C4800F02D
:1011D000CDFE9E4B9C4A9021994800F0C7FE964B4D
:1011E0009B4A4021964800F0C1FE00239A4698464B
:1011F00000206B68BFF35F8F00221A6087F31088AE
:101200004346002B31D1002800D105E100F00EFB50
:101210000029A8DB00230024069307946A68EFF3F3
:10122000108772B61368002BFCD0BFF35F8F2B685A
:101230009C465C7B002CD8D09BD01B7B9C4298D8D2
:10124000844BE6183601AB689846464432687368AA
:10125000121A8B41002B92DD32687368099800F0F6
:1012600099FB00239A469846C3E7089B1B02234339
:10127000994651461800C04706000F006A68EFF310
:10128000108B72B61368002BFCD0BFF35F8F002F5A
:1012900026DB002F52DD2B69002B53D04B4574D138
:1012A00000F0C4FA02000B1E75DB01001800921951
:1012B0007B41984202D804D1914202D90122524284
:1012C000D317002B6DDB00210491013103910294AF
:1012D00051460191414600912800FFF775FE4BE011
:1012E0002B69002BD5D04B451CD1069A079B1000CB
:1012F0001900921BBB41994202D804D1904202D9F5
:1013000001225242D317002B12DB0021049101313C
:101310000391029451460191414600912800FFF744
:1013200053FE29E04C4B484A9F21454800F01EFEE1
:101330003E4B3F4A3F213F4800F018FE002F01D1AD
:10134000002EA8D12A68002C47D0537B9C422ED176
:101350000123002B41D1D37B002B44D1D473002C2B
:1013600054D02B681B7B9C4250D8013CEB689C46B8
:10137000644423780133237000232B616A68BFF330
:101380005F8F13608BF3108840E7334B2E4AA22106
:101390002B4800F0EBFD254B254A3F21254800F066
:1013A000E5FD224B224A3F21224800F0DFFD002CC0
:1013B0000DD0137B9C420AD863001B19033B1168B4
:1013C0008C4663449B78002BC3D00123C1E7234B99
:1013D000234A6921234800F0C9FD234B234AF72102
:1013E000204800F0C3FD002B0AD0117B8B4207D8A8
:1013F0005900CB18033B11688C4663445C70ADE721
:10140000164B174A6921174800F0B0FD0A4B104AE5
:1014100040210B4800F0AAFD0BB03CBC9046994619
:10142000A246AB46F0BDC046C01F002094C20010CB
:10143000A8C10010B0C200107CC3001000C2001090
:1014400080C40010F8C2001050C2001010C3001079
:101450000CC20010FFFFFF0F1CC30010D4C300100C
:10146000C0C10010F0C3001058C30010F0C100103C
:1014700010B50A4B5B68002B04D00A21084800F025
:101480001DFB10BD054C2300064A1021206800F00A
:10149000E3FB03212000FFF7C7FCEEE73413002035
:1014A000D41F0020690E001010B5064B5B68002B9E
:1014B00001D0044810BD044B044A5C21044800F0EC
:1014C00055FDC04634130020B0C3001020C20010E8
:1014D00080C40010F0B5D6464F464646C0B588B029
:1014E000804616001F00109B994612AB1B789A4647
:1014F0001F236B4400221A7032E0002809D04246B4
:101500001268127B904204D8421E4146C9688A5C28
:1015100042E03F4B3F4A40213F4800F027FD00207A
:10152000002B6DD05346002B6AD01199C847040098
:101530000D0003000B4369D000293FDB00F076F972
:1015400000294FDB24184D41A94202D804D1A04202
:1015500002D901246442E517002D49DB26002F0043
:1015600043465A68EFF3108472B61368002BFCD020
:10157000BFF35F8F1F236B440493002303930293F5
:10158000119B01934B46009332003B004046FFF70E
:101590001BFD031EB1D1020041464968BFF35F8FB6
:1015A00000250D6084F31088002B27D01F236B4487
:1015B0001B78002BB3D112021043B1E732003B007D
:1015C000361BAF41BB4202D804D1B24202D9012638
:1015D0007642F717002FC3DA104B114A3F2111480A
:1015E00000F0C4FC0D4B0E4A3F210E4800F0BEFC3B
:1015F0000A4B0B4A3F210B4800F0B8FC0120404247
:1016000008B01CBC90469946A246F0BD0020F7E702
:101610007CC300100CC2001080C4001094C20010E3
:10162000A8C10010B0C20010F0B587B006000F00CE
:10163000FEF719FE00281ED106246442E517A419FE
:101640007D41BD4202D803D1B44201D90024002516
:10165000002D13DB0494059500F0E8F8002913DB56
:10166000241A8D41002D17DC14D03000390000F011
:10167000E9F807B0F0BD234800F012FD224B234AE1
:101680003F21234800F072FC1F4B204A3F21204895
:1016900000F06CFC002CE8D0FFF706FF002302935B
:1016A00001931C4B0093049A059BFFF713FF00283E
:1016B00018DADAE7002300E00023002BD5D1164B1F
:1016C0001A68EFF3108172B61368002BFCD0BFF3D9
:1016D0005F8F114B1B68BFF35F8F00221A6081F38D
:1016E000108820BF0499059A0C4B5B6A9A42E3D894
:1016F0000A48806A884203D29A42DBD00123DCE7A1
:101700000123DAE7B8C4001094C20010A8C1001089
:10171000B0C20010F90D0010D41F00200040054099
:1017200070B504000D0000F081F8002910DB020004
:101730000B00001969418B4202D804D1824202D9C0
:1017400001204042C117002908DBFFF76DFF70BD83
:10175000054B064A3F21064800F008FC024B034AAD
:101760003F21034800F002FC94C20010A8C1001001
:10177000B0C2001010B5FA2292000023002103F03D
:1017800099F8FFF7CDFF10BD70B5EFF305833F204B
:1017900018401038EFF3108472B6194B1B68002BF9
:1017A000FBD0BFF35F8F012319008140154A5163BD
:1017B000154A12781500C5402B4214D0114B5D6AB2
:1017C0008300124E9B599D4206D38300104D5B59F6
:1017D0008A430D490A7007E00A4A031D9B00995885
:1017E0009950002300E00023BFF35F8F044A0021DB
:1017F000116084F31088002B00D0984770BDC0465C
:10180000280100D000400540F41F0020D81F002010
:10181000101E002010B50100024A0348FFF728FA05
:1018200010BDC0463CC50010F11F0020044B596A92
:1018300000E01900024B986A5B6A9942F9D170473F
:1018400000400540074B5B6A8B4204D2054B5B6A44
:10185000FAE7044B5B6A8B4203D1024B9B6A8342DB
:10186000F7D370470040054070B504000D00FFF746
:10187000DDFF02000B0020002900801859418B4237
:1018800002D804D1824202D901204042C117002966
:1018900002DBFFF7D7FF70BD024B034A3F2103482D
:1018A00000F064FB94C2001008C50010B0C2001024
:1018B00010B5002807DB064B9A6A054B9B6A9B1AFA
:1018C0008342FAD310BD0021FFF7CEFFFAE7C046EE
:1018D0000040054010B50A4B984207D843011B1A37
:1018E0009B001B18D800FFF7E3FF10BDFA229200FF
:1018F0000023002102F0DEFFFFF7B6FFF5E7C04648
:101900009BC4200070B504000D00EFF3108672B682
:101910001B4B1B68002BFBD0BFF35F8F002D1CD02F
:10192000200000F04BFD174B98420BD0190020000F
:1019300000F04CFD0121200000F038FD0123A34000
:10194000114A1360A400114BE550BFF35F8F0C4B9D
:1019500000221A6086F3108870BDA2000B4B002194
:10196000D1500122A2400A490B7893430B700549DC
:10197000200000F055FD0021200000F017FDE4E7F5
:10198000280100D08917001038600540101E002083
:10199000F41F0020F0B5DE4600B584B00500140049
:1019A00001921E000293FFF741FF03948E4202D87A
:1019B0004ED184424CD9EFF3108B72B6274B1B6883
:1019C000002BFBD0BFF35F8F254A17780124AC4072
:1019D000E3B23B431370234B5C632A1D92000199D1
:1019E000D150AA002049029850501B6A234212D1BC
:1019F0001C4B1B6C234208D00020BFF35F8F174B9A
:101A000000221A608BF3108823E0184B184AC1217A
:101A1000184800F0ABFAFFF709FF8E4214D802D144
:101A2000039B834210D80E4B1B78BB420ED00D4B4C
:101A30001C625C631F222A40012393400E4A1360FC
:101A4000074B1F700120D8E70020D6E70120D4E71C
:101A5000012004B004BC9346F0BDC046280100D06C
:101A6000F41F002000400540D81F002060C5001072
:101A700020C5001084C5001080E200E010B5EFF32F
:101A8000108472B60A4B1B68002BFBD0BFF35F8F2C
:101A900001238340074A136207490A789A430A7070
:101AA000BFF35F8F024B00221A6084F3108810BDD1
:101AB000280100D000400540F41F0020024B9C4646
:101AC00061448900016070474000003410B5040093
:101AD000FFF702F901002000FFF7F0FFFF23237159
:101AE000BFF35F8F10BD10B50400FFF7F5F80100DC
:101AF0002000FFF7E3FFFF23237100236371BFF38F
:101B00005F8F10BD10B500291ED0037B99421BD8F2
:101B10004B005B18033B0468A4466344002919D0BA
:101B2000002A1DD0914221D0002A25D0047BA24258
:101B300022D8046850008018033820188170197862
:101B400000291FD11A7010BD104B114A692111488C
:101B500000F00CFA104B114A70310E4800F006FAF2
:101B60000F4B0E4A71210B4800F000FA0D4B0B4A47
:101B70007221084800F0FAF9044B054A692105482A
:101B800000F0F4F941701A70DDE7C046D4C30010CC
:101B900064C60010F0C300103CC4001070C60010F2
:101BA00048C4001054C4001070B506000D001400A5
:101BB000002914D0002A14D0806873689847002840
:101BC00006D0220029003000FFF79CFF280007E024
:101BD0002A0021003000FFF795FF200000E01000F0
:101BE00070BD0800FCE7000010B50023437301330B
:101BF0008373037BC3730123027B9A4214D9002BA6
:101C00000CD0027B934209D85A00D218033A0168DB
:101C10008C4662440133DBB25370EDE70B4B0C4A48
:101C200069210C4800F0A2F9002A09D0924207D895
:101C3000016853009A18033A8A180023537010BDA4
:101C4000024B034A6921034800F090F9D4C3001005
:101C500064C60010F0C3001010B5017342608360C9
:101C6000FFF7C2FF10BD000070B50400002901D1CC
:101C7000080070BD002934D0037B994231D84B0055
:101C80005B18033B0268944663445A78002AEFD0FD
:101C90002DD0037B9A422AD853009B18033B00683F
:101CA000844663445D7800205870002925D0237B4A
:101CB000994222D84B005B18033B2068844663445A
:101CC000002058702000FFF76FFF06002900200059
:101CD000FFF7CAFF020031002000FFF765FF010097
:101CE000C6E7094B094A6921094800F03FF9064B4C
:101CF000064A6921064800F039F9034B034A692175
:101D0000034800F033F9C046D4C3001064C6001085
:101D1000F0C3001070B505000C001600002928D093
:101D20002DD0037B99422AD84B005B18033B0268F5
:101D3000944663445A78002A27D19A78002A2AD1F7
:101D40001978FFF791FF0300002E03D0EA7B002AE9
:101D500027D1EC73002B37D1002C49D02B7B9C4230
:101D600046D82A6863001C19033C141900236370C9
:101D700070BD224B224A3821224800F0F7F8224B4E
:101D8000224A6921224800F0F1F8224B1C4A3A21EC
:101D90001C4800F0EBF8204B194A3B21194800F091
:101DA000E5F8002A0AD0297B8A4207D851008A1810
:101DB000033A29688C4662445470CAE7124B134AAE
:101DC0006921134800F0D2F8002B0BD02A7B9342F4
:101DD00008D843001B18033B2A689446634400223A
:101DE0009A70B9E7084B094A6921094800F0BEF822
:101DF000054B064A6921064800F0B8F8D8C600101D
:101E000084C60010E0C60010D4C3001064C60010E1
:101E1000F0C300101CC7001044C7001070B50400C8
:101E20000A00457B2900FFF775FF6073280070BD2D
:101E300010B50400002966D0437B8B420ED00029E8
:101E400011D0037B99420ED84B005B18033B02680C
:101E5000D0188378002B0CD1002055E00121FFF72A
:101E6000DDFF012050E0294B294A6921294800F073
:101E70007DF8002B1FD0227B93421CD85A00D31828
:101E8000033B2268D21813788B421AD0002B1BD048
:101E9000227B934218D85A00D318033B2268D218E9
:101EA00053788B4216D0002BF0D11B4B1B4A672175
:101EB0001B4800F05BF8154B154A6921154800F0E6
:101EC00055F84378137007E0104B114A6921114807
:101ED00000F04CF843785370002383704370012264
:101EE0002000FFF717FF0200617B814205D0200030
:101EF000FFF75AFE6073012006E00A4B074A6D2186
:101F0000074800F033F8002010BDC046D4C30010CD
:101F100064C60010F0C30010B0C6001098C60010D0
:101F2000E0C60010B8C6001000BEFDE703000A4A74
:101F30001268002A08D0084A1068C318074A9A4253
:101F400006D3054A13607047034A05491160F2E75A
:101F500001204042F7E7C046B01F002000000420E7
:101F60000022002010B5FFF7DFFF000010B582B09F
:101F70000C001900002A0CD0084B002A0BD001924B
:101F8000009323000200064802F0B0FF0120FFF793
:101F9000CBFF044BF1E7034AF1E7C04668C70010E6
:101FA00078C7001074C7001070B52B4B2B4A1A600D
:101FB0002B4B2C4A1A602C4B9A682A4B9343FAD12C
:101FC0002A4C01E008CC9847294B9C42FAD300F0F8
:101FD000FDF8234B274A1A60234B9B68DB43DB0148
:101FE000FAD1254B40229A675A671A67DA66234C62
:101FF00009E0234B234A83212348FFF7B7FF200042
:10200000FFF764FD0834214B9C4209D22368002B62
:10201000F5D0012BEDD12000FFF765FD0834F2E784
:102020001B4CA1681B4DC022280002F017FEA560C2
:10203000FEF719F9002800D000BEFEF73DFE00F0C3
:102040003BFBFFF715FA144C01E008CC9847134B03
:102050009C42FAD370BDC04600E00040BFCDFBFEFD
:1020600000F00040FE7F3C0000C00040381C002013
:10207000481C0020FFFFFF0100F00140301C002041
:10208000CCC70010A8C70010ECC70010381C0020F7
:1020900000ED00E000000020481C0020541C00203F
:1020A0000FB400B583B0084802F0EEFE049B002B8D
:1020B00007D005A90191180002F0F6FE034802F0CE
:1020C000E3FE0120FFF730FFB8C70010C8C70010BB
:1020D000F0B5DE46574680B583B007000E00924645
:1020E0000A9A93424CD3190E01911B0218000093D7
:1020F0000A9A002301F0C2FC05007B00DB199C005A
:102100002D4B9C4664446368834200D260603B1F51
:10211000DBB29B46012B39D9C0239B01234380228C
:1021200012011A60BB00254A9958002905D0506950
:1021300001F062FC01300138FDD153465B01226899
:102140005340E022134080225201224313605B4639
:10215000012B26D980239B012343802212011A6080
:1021600065602A0000230098019901F087FCBF00F8
:10217000124BF850012003B00CBC92469B46F0BDB8
:102180000F4B104A2D211048FFF7F0FE012EC3D14E
:10219000C0239B01234303221A60A368DB07FCD5FD
:1021A000CBE72168714003230B401360A368012231
:1021B000B2401A42FAD0CDE700800040201F002034
:1021C00040C8001030C8001054C8001030B583B0AB
:1021D0000C2000F009FBFEF765FD00280DD0002360
:1021E000092B05D899002D4A2D4888500133F7E76F
:1021F0002A4B2C4A5A6203B030BD2B4B00229A67FF
:1022000000F0FAFA294B01221A60274B5B6C012B74
:10221000FBD1274B03221A60234B9B6B012BFBD175
:10222000022400940533234A0121234800F052FA86
:1022300000940523214A0121214800F04BFA214B4B
:102240000093002202210420FFF742FF1E4D00955B
:102250002B00002201210520FFF73AFF104C0094CB
:102260002300002200210720FFF732FF0094230003
:10227000002200210820FFF72BFF0A4B00932300C8
:10228000002200210920FFF723FF00952B000022E8
:1022900000210620FFF71CFFADE7C046201F0020ED
:1022A000006CDC021BB70000008000403CB0004026
:1022B00030B00040002F68590080024000389C1C5C
:1022C00000C00240001BB700405973078000014B5B
:1022D000C0587047201F0020074B9B6810308000BB
:1022E0001950BFF35F8FBFF35F8F044B002119605C
:1022F00082F310887047C04600ED00E0240100D052
:1023000010B5091A04394808090B05D14005400DDC
:10231000044B184380B210BD034B044A8B21044880
:10232000FFF724FE00E0FFFF8CCA0010B4C80010C5
:102330009CCA001010B5091A04394C08090B08D1C1
:102340004905490D064A11430180064B234343804A
:1023500010BD054B054A93210548FFF707FEC0460F
:1023600000F0FFFF00F8FFFF8CCA0010C0C800108B
:102370009CCA001001238340034A10681840431E82
:102380009841C0B27047C04600E100E0002904D087
:10239000034B1860034B18607047034B1860FBE752
:1023A00080E200E000E100E080E100E010B5012300
:1023B00083401800FFF7EAFF10BD0000024B9B6846
:1023C00010308000C058704700ED00E070B5040088
:1023D0000D00EFF3108672B60C4B1B68002BFBD080
:1023E000BFF35F8F2000FFF7E9FF094B984201D050
:1023F000A84205D1320029002000FFF76DFF70BD13
:10240000044B054A6E210548FFF7B0FD240100D0BA
:10241000CD01001054CA001098C800109CCA0010CA
:10242000F0B5C64600B584B001900D00EFF31086FC
:1024300072B6574B1B68002BFBD0BFF35F8F554B19
:102440009A68019C1034A300D758534B9F4207D081
:10245000AF4200D19AE00297504BFB1A2F2B08D9BC
:10246000320039000198FFF737FF04B004BC9046F2
:10247000F0BD0198FFF77EFF039000210198FFF760
:1024800095FFBFF35F8FFDF7EEFE002801D0844279
:102490001AD10123029C9C43414923003F4A9B1AC5
:1024A0005B415943090D4BB29C460023A168A942E8
:1024B00012D00622A256002A0DDB53009B189A0068
:1024C0002300364CA418F1E71E21364B364AFF3163
:1024D0003648FFF74BFD2300A94250D10622A256F1
:1024E0009046002A36DB5200424491002B4B5B1889
:1024F0009A68A260DA79E2719B795BB2A371002BD2
:1025000012DABD200002A08043465B0043449A00DB
:10251000224B9B18264A11789971434613700399F0
:102520000198FFF743FF9BE7201D1C4A8B181A1DDB
:102530009B88D90A1C2907D1590549150231490040
:102540005118FFF7DDFEDEE71A4B1B4A99211748A9
:10255000FFF70CFD00280DD1002B09D0FF229A7146
:10256000164A9A80124B1A78A27162461A70D6E700
:10257000094FF7E7201D1249FFF7DCFECFE7A9213D
:10258000104B094A49000948FFF7F0FC024F67E782
:10259000240100D000ED00E0CD0100105C1300200C
:1025A000AAAA000028CA0010E8C800109CCA00109F
:1025B000F21F0020DCC90010D8C8001000BDFFFFCA
:1025C000961300204CCA0010F8B5040001260643FB
:1025D0002D4BF31A2F2B28D8FDF745FE00282BD0C2
:1025E000EFF3108772B6294B1B68002BFBD0BFF3AB
:1025F0005F8F274D22002449521A524155432D0D19
:102600006DB2244B9B6880001B58B3421BD0002343
:10261000032B32D85A00D21891001B4A52189279D3
:1026200052B2AA421FD00133F2E778211A4B1B4A5B
:10263000FF311B48FFF79AFCBD211A4B174A49008E
:102640001748FFF793FC134B9B68174A1A50174B18
:102650001A78A2711D70BFF35F8F0C4B00221A60B5
:1026600087F31088F8BD08495A00D618B00008183A
:10267000FF2686710E4B8380E9E78C210D4B074ABC
:10268000FF310748FFF772FC5C130020240100D0E3
:10269000AAAA000000ED00E0F4C90010FCC8001078
:1026A0009CCA00101CCA0010CD010010F21F0020AF
:1026B00000BDFFFFB0C600100022044B02E0044939
:1026C00002C30132072AFAD97047C04600E400E08D
:1026D00080808080F0B583B00500019117001E0056
:1026E0000C2001F089F904004201121A93019B1A8F
:1026F000DB001B189901380001F07EF90200103A46
:1027000098235B009A4232D8731E062B35D8089B5B
:10271000013B062B31D8089B9E4234D33F09A74288
:1027200037D33304089A16031E432B68002B36DB7D
:10273000234B9D4240D080214901224B1960224BFE
:102740001960224A92680B009343FAD1019B2B60D7
:10275000A8602A1DC0239B01134321221A602A6806
:10276000002AFCDAEE6008221A6003B0F0BD184BB4
:10277000184A16211848FFF7F9FB184B154A19217A
:102780001548FFF7F3FB164B124A1F211248FFF7BB
:10279000EDFB144B0F4A22210F48FFF7E7FB2A6895
:1027A0003F231340019A9342C2D1AB681B051B0D16
:1027B0008342BDD1EB68BBE780218901BDE7C046FC
:1027C00000C0024000E0004000F0004000C00040B7
:1027D000E8CA0010DCCA001004CB001044CB001083
:1027E00090CB0010A8CB001080239B000343014A2C
:1027F000D362704700800540064BAA2212011A607E
:102800002F22DA60044B054A1A60024B5B68002BEA
:10281000FBDA7047004002400060024000B0FA005E
:102820009A4200D288547047704710B5002802D0F1
:102830000B684968984710BD10B504000023216853
:102840000A78303AD2B2092A08D89800C31858003A
:102850004B1C23600B781B18303BF0E7180010BDB1
:10286000F0B5D6464F464646C0B582B00500009149
:10287000904601930A9B99460B9C0C9E0D9B9B07CF
:102880000CD04E460C9B9946002C19D0013C571C8D
:10289000305D019B0099A8473A00F5E72700A24662
:1028A000B74207D2541C019B00992020A84701374A
:1028B0002200F5E754460C964E460C9B9946E3E7FA
:1028C0004E460D9B9B0706D4100002B01CBC9046E0
:1028D0009946A246F0BD4746D31BB342F4D2541CDE
:1028E000019B00992020A8472200F5E7F0B5CE46CD
:1028F00000B586B0049205930C9D0D9C0EAE337806
:102900009946109F119B129EB2071BD4002B08D032
:10291000F20706D54A46002A02D10C32324200D0D4
:10292000013BBC4208D21F2C06D830222A55013464
:10293000F7E730222A550134F20703D59C4201D231
:102940001F2CF6D9F20615D5720505D4002C03D03C
:10295000BC4223D09C4221D00F9A102A2AD00F9A31
:10296000102A2FD00F9A022A34D01F2C02D83027D9
:102970002F5501341F2C05D84A46002A30D02D2768
:102980002F5501340396029301940095059B049AF8
:10299000FFF766FF06B004BC9146F0BD671E002F2E
:1029A00006D00F9A102A01D03C00D5E7023CD3E7AD
:1029B0003C00D1E7B206D2D41F2CD0D878272F55AF
:1029C0000134D2E7B206CDD51F2CCBD858272F55CE
:1029D0000134CAE71F2CC8D862272F550134C4E739
:1029E000720703D52B272F550134CBE73207C9D502
:1029F00020272F550134C5E7F0B5CE46474680B5B0
:102A000095B0089009910A920B931CAB10CB1B78E0
:102A100098461E9D219B9946002C03D110234A46BF
:102A20009A4391468027FF004B461F4018D0002C48
:102A300022D0002714E04A4692061BD54121C9182E
:102A4000C9B20A39C9B27E1C0CABD9552900200085
:102A500000F0D2FFAC4210D31F2E0ED83700040076
:102A60002900200000F0C8FFCBB2092BE3D8303397
:102A7000D9B2E8E76121E2E726004B460693209BA6
:102A800005931F9B049303954346029301960CAB59
:102A900000930B9B0A9A09990898FFF727FF15B036
:102AA0000CBC90469946F0BDF0B5DE46574680B561
:102AB00097B00A900B910C920D931E9A08921F9C4E
:102AC00020AB1B789B46229B0993239D269B9A460D
:102AD0002243131E03D1103352469A439246802656
:102AE000F60053461E4006D0089A1300234333D005
:102AF000002637001AE0370018E05246920621D52A
:102B00004122D218D2B20A3AD2B27E1C0EABDA55AA
:102B1000099A2B000898210000F0B0FFA5421DD8AB
:102B200012D01F2E16D8370008900C00099A2B00DF
:102B30000898210000F0A2FFD3B2092BDDD8303372
:102B4000DAB2E2E76122DCE7099B089A9342E8D90E
:102B5000370004E0370002E0002700E0370053466A
:102B60000693259B0593249B0493099B03935B4643
:102B7000029301970EAB00930D9B0C9A0B990A9848
:102B8000FFF7B4FE17B00CBC92469B46F0BD0000A8
:102B9000F0B5D6464F464646C0B594B00A90069169
:102BA0000B9207931C9C08941D9D099522002B00F5
:102BB0002000290001F0F1F9002800D0E8E001220E
:102BC0005242D64B2000290001F0E2F9002800D043
:102BD000DEE001225242D24B2000290001F0C2F96E
:102BE000002800D0D4E000220023089D2800099C82
:102BF000210001F0B7F9002800D0DFE0089E099F0E
:102C00008023DB00209A1A409046131E01D1063320
:102C10001E930C960D973A00324300D1D5E0380D43
:102C20004005400DBF4A944660443A03120BBE4B28
:102C300013431D0001F0C4F9BC4ABD4B01F04FF92C
:102C4000BC4ABD4B01F024F90C900D910022BB4B06
:102C50003000290001F013F9B94ABA4B01F03FF9ED
:102C600002000B000C980D9901F012F901F0C0F967
:102C7000824601F0A5F9B44AB44B0C900D9101F0D5
:102C80002EF90022B24B01F003F901F0B1F9050071
:102C9000B04AB14B0C980D9901F021F90C900D91AF
:102CA000280001F08DF9AD4AAD4B01F018F9020092
:102CB0000B000C980D9901F0E2F802000B000E9049
:102CC0000F9101F00CF910901191A64B9C466544B0
:102CD0002B050D9300230C930E9C0F9D22002B00BF
:102CE0002000290001F0D4F80E900F9122002B0053
:102CF00000208021C90501F0C2F812901391002232
:102D0000994B109C119D2000290001F0CAF8002267
:102D1000964B01F0BDF802000B002000290001F0E5
:102D2000C0F80022924B01F0B3F802000B00200023
:102D3000290001F0B6F802000B001298139901F077
:102D4000A7F802000B000E980F9901F0AAF80022D4
:102D5000754B01F09DF80C9A0D9B01F0C0F8020034
:102D60000B000C920D9332003B0004000D0001F0AB
:102D70000FF900282BD001235B429C46E24400223D
:102D80007A4B2000290001F08CF80C900D911EE088
:102D9000209B04931F9B03931E9B0293089A099BFD
:102DA00000920193079B0B9A06990A9800F0F4F899
:102DB00014B01CBC90469946A246F0BD2E0080235C
:102DC0001B069C46644427001AE700239A46534694
:102DD0006333C62B21D80425209B1B0529D50C9ACB
:102DE0000D9B1900114310D0624A634B300039002B
:102DF00001F0C6F8002800D182E000225F4B3000CD
:102E0000390001F0AFF800287AD01E9B534506DD4B
:102E100052469C1A631E1E9303E00525DCE700233F
:102E20001E938023DB00209A1A4320920025002362
:102E30009A461F9B9D426DD25B1B99460223209AA6
:102E40001A40904603D0002D01D0002399465346E6
:102E5000002B07D00C9A0D9B3000390001F021F8AF
:102E600006000F00002200230898099901F07AF863
:102E7000002800D086E0424B209A134004934B4632
:102E800003931E9B029300960197079B0B9A06994A
:102E90000A9800F081F8002D00D189E7209B9B065D
:102EA00075D54526471C079B0200069930000A9EEF
:102EB000B0475046C2178318534005220592013D82
:102EC0000495002203920A320292C40F01940093E7
:102ED000079B3A0006993000FFF78EFD4346002B12
:102EE00000D165E702000A9E0B9C1F9D131BAB429D
:102EF0004FD2571C079B06992020B0473A00F5E7B0
:102F00001E9B002B95D04346002B92D01E9B013B6D
:102F10001E938EE70023994690E7C046FFFFEF7FA0
:102F2000FFFFEFFF01FCFFFF0000F03FFB799F5028
:102F30001344D33FB3C8608B288AC63F0000F83FD4
:102F400061436F63A787D23F71A379094F930A400A
:102F50000000E03F1655B5BBB16B0240EF39FAFEF9
:102F6000422EE63FFF03000000002C4000002440FA
:102F7000000018402D431CEBE2361A3F80842E419E
:102F8000FFF7FFFF802109067B181F0073E7652606
:102F900088E710000CE7C046F0B5D646474680B536
:102FA00097B00690079108920993209F1E9A1F9B45
:102FB0001000190000F0F1FF002839D1012252421F
:102FC000BC4B1E981F9900F0CDFF00283FD1012275
:102FD0005242B94B1E981F9900F0DAFF002845D1E4
:102FE0000022B64B1E981F9900F0D2FF002856D140
:102FF0000022B34B1E981F9900F0B4FF00284ED159
:10300000002200231E981F9900F0ACFF002856D123
:1030100000239A46229B5B055CD500261F2E5BD8B9
:10302000092F59D90EAB30229A55013F0136F5E7E9
:10303000229B0393219B029303230193A14B0093B3
:10304000099B089A07990698FFF70AFC03E1229B5F
:103050000393219B0293042301939B4B0093099BB1
:10306000089A07990698FFF7FBFBF4E00423229ADD
:10307000134010D0954A002B0FD0042322990391BE
:103080002199029101930092099B089A0799069849
:10309000FFF7E6FBDFE08E4AEDE70323EEE7229B36
:1030A0000493219B039302971E9B1F9C0093019402
:1030B000099B089A07990698FFF76AFDCBE01E9ACC
:1030C0001F9B0020002100F0DAFE1E901F910123BB
:1030D0009A469FE70627A0E71E981F9900F088FFF1
:1030E000040000F06DFF02000B001E981F9900F015
:1030F000C6FEFA00774B9B181A685B680C920D931A
:1031000000F0EDFE0A900B9100F096FF050000F034
:1031100053FF02000B000A980B9900F0B0FE0A90D2
:103120000B9100226C4B00F033FF00282CD00135AE
:10313000280000F041FF02000B000C980D9900F0F0
:1031400017FF002801D001340025002F2AD12000CC
:1031500000F036FF02000B001E981F9900F08FFE52
:1031600000225D4B0A900B9100F0FCFE002844D138
:103170000022594B0A980B9900F00AFF00283CD115
:10318000E3073AD5013438E00022534B0A980B99F3
:1031900000F0E8FE0028D8D1002D01D0EB07D4D5EF
:1031A0000135D2E70A941F2E11D8013F0A212800C9
:1031B00000F022FC741C30310EAB99550A21280016
:1031C00000F01AFC092D0ED905002600EBE70A9C39
:1031D0001F2E0CD87B1E002F09D00EAA302191552E
:1031E0001F000136F4E7A0460A9C4646F0E71F2E72
:1031F00003D80EAB2E229A5501361F2E10D80A2165
:10320000200000F0D1FB751C30310EAB99550A211E
:10321000200000F0C9FB041E01D02E00EDE72E00B7
:103220000323229A1340012B1AD01F2E06D853468F
:10323000002B2FD00EAB2D229A550136229B0393E3
:10324000219B029301960EAB0093099B089A079964
:103250000698FFF705FB17B00CBC90469A46F0BDE8
:10326000219B002B0AD05346002B02D10C33134272
:103270000ED0219B013B2193190000E021998E4241
:10328000D3D21F2ED1D80EAB30229A550136F6E795
:103290002199F4E7229B5B0704D50EAB2B229A55AC
:1032A0000136CBE7229B1B07C8D50EAB20229A55CF
:1032B0000136C3E7FFFFEFFFFFFFEF7F65CDCD4195
:1032C00065CDCDC1B0CD0010B4CD0010A8CD00109B
:1032D000A4CD0010C0CD00100000E03FF0B5DE46E8
:1032E00057464E464546E0B593B083460B910A9249
:1032F0001193002900D1E6E200275C46119B187863
:10330000002800D1E2E2252809D07D1C0A9B3A0062
:103310000B99A047119B013311932F00EEE7013366
:10332000119300261DE00B00303BDBB2092B37D98F
:103330002A293AD000239B46119B1A782E2A44D082
:1033400000239846119A1378683BD9B2122900D904
:1033500080E08B00CB49CB589F4601231E430132AE
:103360001192119A11780B00203BD8B21028DAD8AC
:103370008300C548C3589F4602231E430132119261
:10338000EFE704231E4301321192EAE708231E43AC
:1033900001321192E5E710231E4301321192E0E75A
:1033A00011A8FFF749FA8346C6E71C9B1A1D1C9219
:1033B0001B68002B04DB9B46119B01331193BBE779
:1033C000022216435B429B46F6E78022D200164358
:1033D0005A1C11925A781300303BDBB2092B04D9E6
:1033E0002A2A07D000239846ACE711A8FFF724FA51
:1033F0008046A7E71C9B1A1D1C921B68002B04DB50
:103400009846119B013311939CE70023F8E7802332
:103410005B003343511C119152786C2A01D01E007D
:1034200018E0C0239B001E430131119112E080235C
:103430003343511C11915278682A01D01E0009E0D3
:10344000C0231E430131119104E080235B001E4321
:1034500001321192119B18780300253BDAB2532AEE
:1034600000D926E29300894AD3589F4680239B00C7
:103470001E4301321192EDE780235B001E430132AF
:103480001192E7E7782809D0582838D06F2838D02B
:10349000622838D010239E430A2500E010255828C2
:1034A00033D0692803D0642801D00C2296437305D9
:1034B00001D50122964369282AD0642828D0B30573
:1034C00000D59FE0F30500D5B8E0730600D4CAE04C
:1034D0001C9A111D1C911168FF220A4005965B463B
:1034E00004934346039302950023019300920A9BA1
:1034F0003A000B992000FFF77FFA070027E010251C
:10350000CDE70825CBE70225C9E720221643C8E707
:10351000B30520D4F30550D4730666D51C9A111D4B
:103520001C911168FF220A40D317D1185940059603
:103530005B460493434603930295D20F0192009198
:103540000A9B3A000B992000FFF756FA0700119BDF
:1035500001331193D2E61C9BDA1D07218A43110027
:1035600008311C91116853689C46DB170C930D932E
:103570000C9A0D9B100048400E90624653400F93EA
:103580000E980F990C9A0D9B801A99410E900F91ED
:1035900008965B46079343460693049500230593DC
:1035A0006346DA0F0292009001910A9B3A000B9950
:1035B0002000FFF779FA0700C9E71C9A111D1C913A
:1035C0001268D317D118594005965B4604934346B9
:1035D00003930295D20F019200910A9B3A000B9936
:1035E0002000FFF709FA0700B1E7330605D51C9A5A
:1035F000111D1C910023D25E96E71C9A111D1C918F
:10360000126891E71C9BDA1D07218A4311000831DB
:103610001C9108965B460793434606930495002346
:103620000593029353681268009201930A9B3A0033
:103630000B992000FFF738FA070088E71C9A111D44
:103640001C9105965B460493434603930295002321
:103650000193136800930A9B3A000B992000FFF72F
:10366000CBF9070073E7330606D51C9A111D1C9190
:1036700012681204120C31E71C9A111D1C91126879
:103680002CE7C046C4CB001010CC001054CC001066
:1036900046281AD01C9B0733072293431A0008328E
:1036A0001C9204965A460392424602921A685B683C
:1036B000009201930A9B3A000B992000FFF76CFCE3
:1036C0000700119B0133119318E620231E43E1E705
:1036D000672801D0472802D180231B011E434528BB
:1036E00001D0472801D120231E431C9B073307220A
:1036F00093431A0008321C9204965A46039242469B
:1037000002921A685B68009201930A9B3A000B9937
:103710002000FFF73DFA0700119B01331193EDE5FF
:10372000022333409A461ED001261C9B1A1D1C9270
:103730007D1C18780A9B3A000B99A0475346002B32
:1037400015D1119B013311932F00D7E5551C0A9B0E
:103750000B992020A04733002A005E1C9F42F5D819
:10376000BB461700E1E701233A005F46F5E72A0070
:10377000A0465C4606E0571C0A9B0B992020C047D8
:103780002E003A00751CB442F5D815004446D8E71F
:103790001C9B1A1D1C921B689A464346002B00D1A5
:1037A000013B55462A78002A05D05A1E002B02D02C
:1037B00001351300F6E75346ED1A8023DB00334052
:1037C000994602D0454500D945460223334010931F
:1037D00008D03A00564629004D46230044469846F4
:1037E00089461FE03A0023005C469B4606E0571CD2
:1037F0000A9B0B992020D84735003A006E1CAC423A
:10380000F5D835005B46A346564629004D4644464A
:103810009846894606E01C000136571C0A9B0B9906
:10382000C0473A003078002804D0002DF4D0631E41
:10383000002CF0D117004D464446109B002B03D1BD
:10384000119B0133119359E55C4606E0571C0A9B16
:103850000B992020C04735003A006E1CAC42F5D8C9
:1038600017004446ECE7212333431C9A111D1C9199
:103870001268009205930823049343460393102390
:103880000293002301930A9B3A000B992000FFF753
:10389000B3F80700119B013311932FE57D1C0A9BA0
:1038A0003A000B992520A047119B013311932F005B
:1038B00024E57D1C0A9B3A000B99A047119B01331C
:1038C00011932F001AE50B4B9B4615E5A3460A9B67
:1038D0009F420CD35A1E0A9B0B990020D8473800F0
:1038E00013B03CBC90469946A246AB46F0BD3A00A8
:1038F000F1E7C046292800100EB410B585B00100CC
:1039000007AC08CC03940122009452420348FFF70D
:10391000E5FC05B010BC08BC03B018472128001016
:1039200000B585B0029003910121009313004A4233
:1039300002A90248FFF7D2FC05B000BD2B280010F9
:1039400001480421014B1847B013002071390010C1
:1039500010B5010018231B8814221088984710BD49
:1039600010B5010018231B8816221088984710BD37
:10397000F0B5C64600B507000E00002501239846A5
:1039800000E00135B5420AD2AC003C192068FFF7CF
:10399000DFFF20600028F4D100239846F1E740467D
:1039A00004BC9046F0BD0000124A936F9B0815D2EC
:1039B0009066D166002905D0FFE7FFE7FFE7516F6A
:1039C000106F704704B580210906C21751400028C6
:1039D00000D0C84308F044FB002104BDF0B5146ECC
:1039E000556E576F166FFFF7E3FF146655665767FE
:1039F0001667F0BD000000D0114A936F9B0813D2E8
:103A000010665166002905D0FFE7FFE7FFE7516F19
:103A1000106F704704B5002801D00020C04308F0A3
:103A20001FFB002104BDC046F0B5146E556E576FE4
:103A3000166FFFF7E5FF1466556657671667F0BD0A
:103A4000000000D094464E4A926F9208624601D21E
:103A500030E0C046F0B54A4EB56F6D08FCD3346E09
:103A6000756E776F366F00F025F89446444A1466F9
:103A70005566576716676246F0BDC0469446404A91
:103A8000926F9208624601D258E0C046F0B53C4EB3
:103A9000B56F6D08FCD3346E756E776F366F00F0BE
:103AA0004DF89446364A146655665767166762465F
:103AB000F0BDC046002B24DB11D000293EDA00B552
:103AC000C943404200D1013100F038F8C9434042B7
:103AD00000D10131DB43524200D1013300BD002A45
:103AE000EBD1002801D1002905D00020C90FC9075A
:103AF00001D1C043410800B508F082FA002200233A
:103B000000BD00B500290ADBDB43524200D101337E
:103B100000F014F8C943404200D1013100BDC9434F
:103B2000404200D10131DB43524200D1013300F069
:103B300005F8DB43524200D1013300BD002923D1F7
:103B4000002B18D1002A0CD0BC460D4F38667A667F
:103B500000210023FFE7FFE7FFE77A6F386F674632
:103B60007047002801D00748010000B508F048FA66
:103B70000022002300BD02000B000020002170473E
:103B8000000000D0FFFFFFFF002B00D0BFE0130CB0
:103B900028D1002AE7D080B4114F39667A66FFE752
:103BA000FFE730B4040C7B6F396F1B0423433B6683
:103BB0007A66FFE7FFE7FFE7C04684B27B6F3D6FA1
:103BC0001B0423433B667A66FFE7FFE7C0460023FA
:103BD0002C042D0C7A6F386F00196941B0BC704706
:103BE000000000D0F0B594460025140E01D1120259
:103BF0000835140F01D112010435940F01D1920040
:103C00000235D40F01D152000135D40B0134254FB8
:103C10007C66254C3C660E0C93B2FFE7FFE7FFE79E
:103C20003C6F6643360C7703BE467343DF0B5B0481
:103C3000C01AB941130C7343DB18C91ACE08664386
:103C4000360CB64493B273431F0F1B01C01AB9411F
:103C5000130C73431F0B1B05C01AB941860D8F024D
:103C60003E436643360C092D24DB520A7243801A08
:103C70007703460A6643360C16235B1BDE40DF40A3
:103C8000BF1964466643821B704604350633010043
:103C9000D940A840C01900D30131A24206D2002366
:103CA000F0BD0000000000D0FFFFFFFF121B01303D
:103CB000F3D3F1E709277F1BFE406446A2B27243AB
:103CC000801A00D20139220C7243130C1204821A9A
:103CD00099410B007046043513370100F940A840A4
:103CE000801900D30131002B02D1A2420AD2F0BDCB
:103CF000013000D30131121BFAD2013BF8D1A242AC
:103D000000D2F0BD013000D30131121BF7E7F0B54E
:103D10001C0C00D080E00CB400251C0A04D11B024E
:103D2000160E3343120208351C0B04D11B01160F6B
:103D30003343120104359C0B04D19B00960F33438F
:103D400092000235DC0B02D192185B4101351C0058
:103D5000971864410134464F7C66464C3C660E0C15
:103D6000FFE7FFE7FFE7C0463C6F6643360C77038B
:103D7000BE4697B27743C01B00D20139C01B00D2A8
:103D800001399FB27743C91BC91B170C77437E04C7
:103D9000FF0B801BB941CE086643360C0C2D33DB7C
:103DA000B644120B1F053A431B0B97B27743C01B57
:103DB00000D201399FB27743C91B170C77433E04E9
:103DC0003F0C801BB941860D8F023E436643292775
:103DD0007F1BFE400C3D7746AF40BF1930BCA2B2FE
:103DE000ABB272437343801A9941220C7243130C95
:103DF0001204801A994102000B000137001BA941EF
:103E0000F9D2781E0021F0BD0C277F1BFE407746BB
:103E10007F0BAF40FF19E0E700245D1C07D0144F73
:103E20007D663966FFE7FFE7FFE7FFE73C6F95B286
:103E30009EB265436643401BB141150C1E0C6543A1
:103E4000664336042F0C3E432D04401BB14199427A
:103E500004D202000B0020000021F0BD01D19042ED
:103E6000F7D3801A994101349942F2D3F6E7000062
:103E7000000000D0FFFFFFFF48404140484018B419
:103E80001B4B5B68FC46019308BD04DF83410010B7
:103E900018B4174B1B68FC46019308BD00DF8D4129
:103EA00000109446134A926F920809D2624618B4E1
:103EB0000F4BDB68FC46019308BD0CDF4544001046
:103EC0000C4AF0B5146E556E576F166F6246FFF7C9
:103ED000EEFF084A1466556657671667F0BD18B4BA
:103EE000034B9B68FC46019308BD08DFE9420010C4
:103EF000FC1F0020000000D0FFB550404240504061
:103F000059404B40594000E0FFB5154F4C00640D3F
:103F100003D0BC4204D10C0314D80020090D0905BC
:103F20005C00640D03D0BC4204D11C030AD80022FB
:103F30001B0D1B0501264B4009D44B4003D58B427A
:103F400000D18242FFBD9942FCD19042FFBD0B439C
:103F5000DB1803431343F5D0C9434918FFBD0000E4
:103F6000FF07000000B5FFF7CFFF804100BDC0464E
:103F700000B5FFF7C9FF01D9002000BD012000BD39
:103F800000B5FFF7B9FF01D9002000BD012000BD39
:103F900000B5FFF7B1FF804100BD012040054A0098
:103FA000121804D85A00121801D8002070470120B6
:103FB00070470020704700000021002805D170479D
:103FC000C1174840401AFAD0C90713B5064B1B6801
:103FD00098470CBC441CA2401005120B0349091B56
:103FE00009051943114310BDD01F00201F04000014
:103FF00010B54C00620D8023D218DB00D21A5B058D
:104000007E2A10DD9E3A13DACC17090349081943BA
:104010005242D140640001341532202A05DAD040E2
:104020000843604310BD002010BD0846604310BD2A
:10403000C80FC018013810BD18B4044B5B6AFC46A9
:10404000019308BD24DF9D4700100000FC1F0020E5
:1040500018B4044BDB6FFC46019308BD7CDF1D48A0
:1040600000100000FC1F002018B4044B9B69FC46A4
:10407000019308BD18DF114600100000FC1F00204E
:1040800070B513231C78012C0CD0012C13DC022CEE
:1040900002DC1F4A1F4B9A641F48FFF759FC1F4B55
:1040A000186070BD00231F2BEFD899001848194ADB
:1040B00088500133F7E71A48FFF752FC050019480A
:1040C000FFF74EFC023803789B007F2B19DD80221E
:1040D0002900104800F0C2FD022CD8D1124B1A88DA
:1040E000B5231B029A4209D1104B1A88104B9A42F1
:1040F00004D1104B1A88104B9A42C8D00020FDF70B
:10410000CFFF0E4B0E4A32210E48FDF72FFFC0465F
:1041100049410010FC1F00204C330000D01F00203C
:10412000534400005346000054380000D8380000C3
:10413000494600009C3800005946000010CE00108F
:10414000BCCE001070CE001007B56046002800D12C
:1041500000BE01880A0A0230DF2AFAD1C9B28208F9
:1041600004D3028840880004104300E00068024A3B
:104170005050039007BD0000FC1F00200FB403BC8B
:104180000CBCF0B50124E407634000E0F0B50C0D71
:10419000CF0F661E3605891B640503D3C943404211
:1041A00000D30131640D03D0661CF60A07D0E41B6E
:1041B00000207F00791C89078912803C24031D0D93
:1041C000DF0F6E1E36059B1B6D0503D3DB4352428A
:1041D00000D301336D0D03D06E1CF60A07D0ED1B22
:1041E00000227F007B1C9B079B12803D2D032F1B11
:1041F000661B58D4A446202E46DA20371400BC4053
:104200001D00BD40F24033412A4380185941CB0F75
:1042100005D0C943C0430022644250415141624627
:104220004D0D28D10D0D07D100281FD02419404174
:104230004941013A0D0DF9D0640006D3013000D395
:104240000131002C01D140084000013A0BD4941CEC
:10425000E40A04D112051144DB071944F0BDD90763
:10426000204B194300E0D9070020F0BD0029DDD123
:10427000002CDBD1F0BD0132C6074008CD07284332
:104280004908002EE1D0D9E73C2E29DA203E4037FC
:104290001400BC4000D00124F24014431A00BB407B
:1042A0001C43D317ACE7AC46202F08DA20360400B5
:1042B000B4400D00B540F84039412843A5E73C2FF4
:1042C0000CDA203F40360400B44000D00124F8400E
:1042D00004430800B1400C43C117EAE7100019007D
:1042E000002494E70000F07FF0B50C0D661E360543
:1042F000891BE60A6405640D02D0651CED0A04D032
:10430000002001210905803C2403A4461C0D671EE2
:104310003F05DB1BE70A6405640D02D0651CED0A4E
:1043200004D0002201231B05803C24037740644411
:1043300097B484B296B27443070C7E43150C6F4356
:1043400080B26843361802D3012000043F183004BD
:10435000350C00197D41844688B29AB250430C0C4A
:1043600062431F0C7C438EB27E43921902D3012616
:104370003604A4191604170C3618674101BC81B223
:104380009AB25143040C62431B0C5C4380B2584305
:10439000121802D30120000424181004130C401832
:1043A00063412D185E410020474106BC88B293B29C
:1043B00058430C0C6343120C544389B251435B18AD
:1043C00002D301210904641819041A0C0918624166
:1043D0006D1856410020474118BCF902720D114377
:1043E000F0026A0D1043ED020A0D03D16D19404130
:1043F0004941013B124E9B1B7600B3420ED26D0029
:1044000007D30130002671416646354301D140088B
:1044100040001B05C918E4072144F0BD0BDA013345
:1044200006D1013004D101314F0D01D04908F2E726
:10443000E1070020F0BD013631050020EBE7000068
:10444000FF030000F0B51C0D671E3F05DB1BE70AEC
:104450006405640D02D0661CF60A04D00022012314
:104460001B05803C2403D0252D060026F6432E662E
:104470001E096E66CE0FF619B44649004F0D02D0E4
:104480007E1CF60A03D000200021403F3F033E1B64
:10449000B600B444013F7F05C91B49082E6F0136A1
:1044A00076089C02950D25437543ED137543AD13B6
:1044B00001356D10F603761B0CB4CC02450D2C4370
:1044C000A2B2B3B25A43270C7B43350C6F43A4B25C
:1044D0006C431B1902D3012424043F191C041D0C36
:1044E000A4187D4124196D41009A91B2ACB2614388
:1044F000170C7C432B0C5F4392B25A43A41802D38F
:1045000001221204BF182204230C52187B41019C83
:104510006C431B19520ED9010A434401A01A81B2FF
:10452000B2B2514303145A43360C734387B27743F4
:10453000D617D21900277E4136049B191704160C92
:104540007F185E417316ED18F30100268033754124
:10455000A90F06D16400690AE8055B0A184309D26D
:104560002FE00422944480337541A90AA8059B0AD0
:10457000184326D3404149412404009A019B0D0071
:104580005543641B4343E41A95B286B27543170C36
:104590007E43030C5F4392B25A43B61802D3012202
:1045A0001204BF183204330C52197B4152429C4111
:1045B000002C02D40022013051414008CA071043A8
:1045C000490802B06246D7079210084BD218084B30
:1045D0009A4203D212058918C919F0BD0020002A99
:1045E00001DC3900F0BD01331905F5E7FD030000DA
:1045F000FE07000007DA002107E0C90FC907520DC6
:1046000003D0C91201E04C49090500207047C0469B
:104610004A00F2D2520D013A484B9A42EAD2F0B522
:104620001405091B520801D3001849419B08D218F0
:104630001205944640A44A0CA25C0B095343534311
:104640001B1353435B131202D21A13005B435B0B21
:104650004C086343DB135343DB1501335B10D21A61
:10466000130CD21A13005B438902840D21438DB2CF
:104670009EB275430F0C7E431B0C5F438CB25C43B0
:10468000361902D3012424043F193404330C64196D
:104690007B419D01A40E2C432034A5B25543241424
:1046A00054432D0C6419A411D203121B95B28EB27F
:1046B0007543170C7E430C0C674393B26343F618A3
:1046C00002D301231B04FF183304340C5B197C4113
:1046D000DB186441DB18002363419EB276439DB230
:1046E0001F0C7D437F436C04ED0BA4197D41060232
:1046F0008F08361BAF417D07F6086E41B4B295B204
:104700006C4337147D43120C5743B6B25643EA1735
:10471000AD19002672411204BF182E042A0C361956
:104720007A410832521117D29D0A9C05D1171019EF
:1047300069416144F0BD0000FF070000FE07000072
:10474000F8EBDFD6CDC5BEB8B2ADA8A4A09C9995B4
:10475000928F8D8A8885838152415D0ADC05D1174D
:1047600014194D412B006343A6B27643A2B2270C25
:104770007A437F435104D20B89197A41D218D21857
:1047800080054942904102D4002301345D41600814
:104790006908ED0728436144F0BDC046002200B51A
:1047A000203200F004F8080000BD000000220B15C4
:1047B0000AD410B5944600F05FF81414013400DAFE
:1047C0000021CB17144C2047002000217047624481
:1047D000343A0CD40C2A07DA04009140904052423B
:1047E0002032D440214310BDD843D94310BD2032DC
:1047F00007D40C469440524220321141D04020430D
:1048000010BD0800C917203203D452422032104193
:1048100010BD1800190010BDCF4700104A00520DFE
:10482000144BD21A13DDFF2A1EDAD205CB0FDB0799
:104830001A43C300400F0903490A084310435B00B1
:1048400001D301D0013070474308FBD2704702D03A
:10485000C80FC00770470A0312130132F8D1420F84
:10486000072AF5D1012200E0FF22C80F00028018BC
:10487000C0057047800300000A0DCC0F531E1B05B6
:10488000C91A520503D3C943404200D30131520D26
:1048900003D0531CDB0A07D0121B00206400611CEC
:1048A00089078912803A1203014BD21A704700001F
:1048B000FF03000051434343C9188C46110C83B2D7
:1048C0004B4310B4040C614392B280B25043624334
:1048D0001C041B0C001910BC59411304120CC01805
:1048E0005141614470470000484041404840002326
:1048F0009C46114B5B68184700239C460E4B1B6877
:1049000018470E4A936F9B0804D200239C460A4B1B
:10491000DB681847F0B5146E556E576F166FFFF7CA
:10492000F4FF064A1466556657671667F0BD002304
:104930009C46014B9B681847FC200020000000D0DB
:1049400007B548404140484001E0C04607B5420035
:10495000120E03D0FF2A03D1420218D8C00DC005A1
:104960004A00120E03D0FF2A03D14A020FD8C90D04
:10497000C9050122414005D4414001D5814207BD0E
:10498000884207BD0143491801D0C043001807BD44
:1049900000B5FFF7DBFF01D0002000BD012000BD06
:1049A00000B5FFF7D3FF804100BDC04600B5FFF75B
:1049B000CDFF01D9002000BD012000BD00B5FFF7EB
:1049C000BFFF804100BD491A002807D10846704743
:1049D000C10FC90700D54042002817D0F44603B4E0
:1049E0000B4B1B68984706BC81409E384042803183
:1049F00007D20B0607D04900490AC00510430843F7
:104A000060470130F8E7490A8902F5E7704700007E
:104A1000D01F002041000A0E80231B067E2A0BDDDA
:104A20009E3A0BDAC1174002400818435242D04068
:104A3000490001314843704700207047C00FC0183B
:104A400001387047C0420DD300B540004008002136
:104A500000F012F8002801D4404200BD802000067A
:104A600000BD0000034BDB69FC4618471CDFCD4B43
:104A700000100000FC20002000239C46014B5B6AD4
:104A800018470000FC200020034BDB6FFC46184752
:104A90007CDFE54B00100000FC20002070B51323E4
:104AA0001D782A48FEF75CFF0400012D11D0012D6E
:104AB00009DDA31E1B789B007F2B40DD8022210097
:104AC000234800F0CBF82348FEF742FF224B186042
:104AD00070BD542201001E4800F0C0F81F4B1A8818
:104AE0001F4B9A421CD1A7239B011A881D4B9A4247
:104AF00016D11D4B1A881D4B9A4211D11C4B1A8896
:104B000094239B019A420BD11A4B1A881A4B9A4252
:104B100006D11A4B1A681A4B9A4201D1152307E0A5
:104B20001848FDF7BDFA99001748094A8850013323
:104B30001F2BF8D9144A064B1A62DA61B7E7134BF8
:104B4000134A42211348FDF711FAC04653460000AC
:104B5000FC2000204C330000D01F0020EE29000074
:104B6000C40F0000C20D0000962B0000C0B500006D
:104B7000182B0000CC2A000010B50000FC2C00000F
:104B800051ED876474C70010994B0010D0CE00100F
:104B90004CCF001004CF001007B56046002800D1AC
:104BA00000BE01880A0A0230DF2AFAD1C9B282089F
:104BB00004D3028840880004104300E00068024AE1
:104BC0005050039007BD0000FC2000200021C215BA
:104BD0008032803201D0024A104700207047000026
:104BE000CD2A0000C30FDB0741000A0E07D0FF2AC1
:104BF00008D00909054A8918194340077047190068
:104C0000002070470249C918FAE700000000003888
:104C10000000F07F10B5040006F048FC002804D026
:104C20000419034B9C4200D810BD0248FDF738FA26
:104C30000000042060CF001010B506F041FC10BD4C
:104C400001480421014B1847C0130020713900109E
:104C5000014B1B6818470000C0130020014B5B6824
:104C600018470000C013002010B50C0003681100A5
:104C70002000984710BD0000F8B507000D00160091
:104C8000437C002B02D0002400200CE003681100BC
:104C9000280098472DE03B7C10E0022115483B6836
:104CA0009847601C0134B44214DA002CF3DD2B1950
:104CB000013B1B780D3B5A425341DBB22A5D0A2A65
:104CC000F0D1002BEED1A042E7DA211A28183B6878
:104CD0009847E2E7B04203DA311A28183B68984750
:104CE000002E06DDAD19013D2B780D3B5A42534194
:104CF0003B74F8BDE0CF001070B505000368002BD1
:104D000016D00C4B1C6805E0290004C92000FFF7F1
:104D1000B3FFE468002C09D02368002BF9D0064BC0
:104D20001B68002BF0D0A342F3D1EDE700232B60EA
:104D300070BDC046981F00209C1F002070B5050064
:104D40000C000B68802B05D023685A1C2260E418E5
:104D5000257170BD0800FFF7CFFFF5E710B582B0F1
:104D6000D0231B0600241C5701A9074807F088F927
:104D7000002806D1019B9C4203D0034807F0C0F9EC
:104D8000012002B010BDC046301C002010B5024802
:104D900007F02EF910BDC046301C0020F0B5C64605
:104DA00000B584B001900D0016001C00FFF7D6FF7F
:104DB00080466B1C05D0002C08D0194F194B1C687D
:104DC00007E0019806F086FF0500F4E7164FF5E7C7
:104DD000E468002C16D02368002BF9D0134B1B6815
:104DE000002B01D0A342F3D12A0001992000B8473B
:104DF000002EEDD002ABD91D0A230B70012220003A
:104E0000B847E5E74346002B06D1681E8541E8B266
:104E100004B004BC9046F0BDFFF7B8FFF5E7C0460C
:104E2000694C0010981F0020794C00109C1F002036
:104E30000C4B1A681300002B0BD0834202D01A00CF
:104E4000DB68F8E7002903D1DB68D3600023C36087
:104E500070470029FCD0002A01D0D060F8E7014B50
:104E60001860F5E7981F002010B5064B1C6800E09D
:104E7000E468002C04D06368002BF9D09847F7E76A
:104E800010BDC046981F002070B5050006F022FF37
:104E900004000023012201002800FFF77FFFFFF735
:104EA000E3FF200070BD000070B5A2B004000E004A
:104EB000FFF754FF05008422002101A8FFF7C8FE78
:104EC0003300220001A90848FEF72AFD040001A8CA
:104ED000FFF712FFFFF7C8FF002D02D1200022B01C
:104EE00070BDFFF753FFF9E73D4D00100FB400B55B
:104EF00083B004A901C90191FFF7D6FF03B008BC34
:104F000004B0184710B500F083F810BDF0B583B0B9
:104F100000251AE06B4607330D241C70002403E0C3
:104F20001F78176001340133002C1CD19769BF062C
:104F3000FCD4F5E71E78166001340133002C03D150
:104F40009669B606FCD4F5E701358D4210DA094BB7
:104F50001A68465D084BD3185C4263415B00074CFE
:104F60001B5FB342D6D06B4607331E700024E5E7C3
:104F700003B0F0BDE81F00200080FCBFF81F002038
:104F8000F0B583B0070000200EE013682B700134E9
:104F90000135002C03D19369DB06FCD4F5E76B46A1
:104FA00007331B780370300088420ADA084A126817
:104FB000956910242C4004D1461C38186B46DD1D21
:104FC000E7E7002801D003B0F0BD0338FBE7C04697
:104FD000E81F002070B515001C000B4B1860FBF794
:104FE000CBFE002D06DA002C09DA01210748FFF775
:104FF0001FFF70BD02212800FBF74EFDF3E70221E1
:105000002000FBF749FDF0E7E81F0020D013002047
:1050100010B5064B1B78064B1B78E12101230022BB
:1050200049020448FFF7D6FF10BDC04618230110FF
:105030001C23011000400340F0B5D64600B582B0F5
:1050400082460D000620FDF741F90090022400E0A1
:105050003C00FE2C1ED8009B01930026A71C3802A2
:105060002A0000230021FFF725FC002904D1B142CA
:10507000EED1019B9842EBD980267600012E0CD907
:10508000771E210079430098FEF7B6FCA84204D8A9
:105090003E00F3E780267600F0E753461C61731E5E
:1050A0001B02524612685340FF2212021340802214
:1050B000520151460A431360310061430098FEF7E4
:1050C0009BFC02B004BC9246F0BD000010B5040089
:1050D000144B984222D080229202134B1A60134B39
:1050E0001A60134B9B6810009843FAD12000FFF719
:1050F000A3FF226807235340CF221A4080235B017D
:1051000023431A602200243280239B011A43032187
:10511000116004341C430223236010BD802252021C
:10512000DBE7C04600C0034000E0004000F0004064
:1051300000C000400123084A1360084A1360084B6E
:105140009A6801239343FAD1064B01221A60054B5A
:105150001B68DB05FBD5704700E0004000F0004015
:1051600000C0004000C0044000207047704710B5E8
:10517000002905D021210023002201F05EF810BD96
:105180002021F8E7F8B505002923C356002B14DBCE
:10519000114C2178002919D0A71C66787F2434404F
:1051A00023003A00280001F048F83C1976B2002E9E
:1051B000EFDA9620FCF7DEFAEBE70023002201216C
:1051C00001F03BF89620FCF7D5FAE1E7F023AB813C
:1051D0005033EB81F8BDC046A8D1001000B583B0B4
:1051E0006B46D971032319408176012915D0002916
:1051F0000BD002291AD0032920D001236A46073296
:10520000362100F0F9FF03B000BD6B464822DA7189
:10521000F02383815033C381EFE76B462822DA7194
:10522000A0235B008381503BC381E6E76B46882265
:10523000DA71F02383815033C381DEE76B46E822C5
:10524000DA71A0235B008381503BC381D5E7F0B5C1
:1052500085B000900AA800886C46A61DE18001ADCB
:105260002A805B189BB2013B0E276F443B8080185D
:1052700080B2013803AC20802A21009800F0FEFFA4
:105280003100009E300001F02DF83900300001F0AF
:1052900029F82B21300000F0F1FF2900300001F047
:1052A00021F82100300001F01DF82C21300000F021
:1052B000E5FF05B0F0BD000010B582B00400A020ED
:1052C000019300920B004200F021200000F014FD39
:1052D000024B08332360200002B010BD38D200100A
:1052E000F0B5DE4657464E464546E0B585B0070068
:1052F00090461E000EAB00255D5F0FAB1B8801932F
:10530000AB1ADA179B1853409946731ADA179B1891
:1053100053409A46994505DC2B0035001E00434654
:1053200088461900A84505DC33000E0019002B0043
:105330004546984643465B1B9BB202931BB28A1BB1
:10534000D017121842400092DC0FE41864108E420D
:1053500002DA0123039313E001235B4203930FE07E
:105360003B689B699B46019B320029003800D84767
:10537000009BE41AA3B21CB2002C0EDB01352DB247
:10538000454513DCD145EBDD3B689B699B46019BA2
:105390002A0031003800D847EAE7039A9446664469
:1053A00036B2029A944663441CB2E7E705B03CBCAF
:1053B00090469946A246AB46F0BD704710B50468CA
:1053C0002469A04710BD30B583B006AC25880468B9
:1053D000A46B0095A04703B030BD30B583B006ACD8
:1053E00025880468E46B0095A04703B030BD70B514
:1053F00082B006AC0025655F07AC26880468246C83
:1054000001960095A04702B070BD7047F0B5CE463A
:1054100000B584B00700039116001C000AAB1B887E
:10542000994603685B6998473B689D6A3419A4B242
:10543000013C4B46019324B2009403990B003200C7
:105440003800A8473B68DB6A3800984704B004BCC2
:105450009146F0BDF0B5CE46474680B583B0070013
:105460000D0016001C000AAB1B88994603685B6997
:1054700098473B689B6A98462C19A3B2013B1BB224
:105480004A4601920096320029003800C0473B6826
:10549000DB6A3800984703B00CBC90469946F0BDD3
:1054A000F0B5DE464F4680B585B005000F0002928C
:1054B00099460CAB00229B5E03930DAB1E880368DC
:1054C0005B6998473C004B46FB189C420BDA2B6803
:1054D0001B6A9B460096039B029A21002800D8472E
:1054E000013424B2EFE72B68DB6A2800984705B047
:1054F0000CBC91469B46F0BD10B582B003681C6C95
:105500000C22835E01910E21425E00920022002156
:10551000A04702B010BDF0B5D6464F4680B585B065
:1055200006000D0003921C000CAB0027DF5F0DABE3
:105530001B889946A14219D0039BBB4229D003681E
:105540005B69984733689B6A9A464B46019300977C
:105550002300039A29003000D0473368DB6A30000B
:10556000984705B00CBC91469A46F0BDBA4202DCA1
:105570003B001700039333689C6B039BDB1B9BB2C0
:1055800001331BB24A4600923A0029003000A0477E
:10559000E7E7A14202DC23000C001D003368DF6B4B
:1055A0002B1B9BB201331BB24A460092039A210087
:1055B0003000B847D5E7F0B5D64600B584B0040052
:1055C0000D00029203930AAB00201F5E0BAB1E88F6
:1055D00023685B69200098472368586A82460096D2
:1055E000039B029A29002000D04723685A6A9246FA
:1055F000029BDA1992B2013A12B20096039B29007B
:105600002000D04723681A6A924600963B00029A0F
:1056100029002000D0472368186A824603998C46E7
:105620006544A9B2013909B200963B00029A2000F4
:10563000D0472368DB6A2000984704B004BC924638
:10564000F0BD03231940817601290DD0002904D033
:10565000022902D0032907D070470822835E838184
:105660000A22835EC381F7E70A22835E83810822D0
:10567000835EC381F0E7704710B5002343600B4C95
:1056800008340460018142818181C2818376038272
:10569000438201224276027601214942C1828182FF
:1056A000C27600220277036210BDC046B4D7001054
:1056B000F0B5DE4657464E464546E0B58BB08246CD
:1056C000059106921D0014AB1B78994615AB00227C
:1056D0009A5E16AB1B880793A9B20124641A24B200
:1056E000CB035B1A59000BB20393013293B20493BC
:1056F00002950023984601339B4600E00295A84599
:1057000000DB80E0002C08DB013D2DB2039B02335F
:105710009BB21AB203921C1924B243469EB2771C64
:10572000B9B208910BB298465B4602339BB21AB2EB
:1057300093461C1924B2454531DB4B46DB0714D593
:1057400053461B681B6A1F00059A8918ABB2069A5C
:10575000D21A5B009BB20498844663441BB212B217
:1057600009B2079800905046B8474B469B0716D59C
:1057700053461B681B6A0993059A089BD71AABB25C
:10578000069AD21A5B009BB204998C4663441BB202
:1057900012B239B2079800905046099FB847029A52
:1057A0009542ACD04B46DB0714D553461B681F6AA5
:1057B000059B944663441900069B9A1B73009BB299
:1057C0000498844663441BB212B209B20798009051
:1057D0005046B8474B469B0790D553461B681F6AF7
:1057E000059B029A991A069B9A1B7600B3B20498FD
:1057F000844663441BB212B209B207980090504627
:10580000B84702957BE70BB03CBC90469946A24650
:10581000AB46F0BDF0B587B00700049115000593C5
:105820000CAB1C8803685B6998473B681E6A6B4633
:105830009B8AEA1A5B009BB201331BB212B200943E
:1058400004993800B0470294002301930333009376
:10585000059B2A0004993800FFF72AFF3B68DB6AA2
:105860003800984707B0F0BDF0B5DE4657464E46C3
:105870004546E0B58FB0824606910792994618AB2F
:105880001B88089319AB1B8898461AAB1B780393A7
:105890001BAB1B780493026A002A2AD0137A49466C
:1058A000CB1ADBB2DB0051688C4663441268059268
:1058B0001F889A789046DA780B9205229A560C92B5
:1058C0009B795BB20D93039B012B00D8E8E06B46FC
:1058D00030229B5E09936B4634229B5E0A935346AB
:1058E0001B685B69504698470023002500229146BB
:1058F00030E10C22835E8B4200DC36E10E22835EB7
:105900000798834200DC30E1039B5A009C466244C6
:1059100053008C466344002B00DC26E1049BDB0033
:1059200084466344002B00DC1FE153461B7F002BA1
:1059300005D14B46AF2B02D90133DBB29946534612
:105940001B685B695046984700274B460593B9464C
:105950005746089B9A46039D66E03B68DB699B4679
:1059600049466943069B9C46614404980200624391
:10597000079B9C4662442BB2029312B209B2534673
:10598000019300B20090029B3800D847013464B202
:105990007308072C44DC1E00DB0712D5012DDCD177
:1059A000049B012BD9D13B689B699B46069B4B44CA
:1059B0001900079BE21812B209B253463800D847C3
:1059C000E4E7C245E2D0012D19D03B68DB699B4674
:1059D00049466943069B9C46614404980200624321
:1059E000079B9C4662442BB2029312B209B2434613
:1059F000019300B20090029B3800D847C6E7049B91
:105A0000012BE2D13B689B699B46069B4B441900E6
:105A1000079BE21812B209B243463800D847B5E7EF
:105A20004B4601335BB299464B46042B08DC059A82
:105A30009300944663444B444F4AD35C0024A8E748
:105A4000BA46089B434516D0039B012B19D05346F9
:105A50001B68DC69039B99009C466144069A944646
:105A600061441BB209B242460192049AD2000092EC
:105A7000079A5046A04753461B68DB6A5046984732
:105A800073E0049B012BE2D13B681C6A0699053147
:105A900009B2434600930823079A3800A047EAE773
:105AA000049B012B00D912E700230A93099316E700
:105AB0006BB2002B11DB6D00EDB20134E4B23300A8
:105AC000444542D25E1CF6B25B07F1D102994B1CF1
:105AD000059A555C9BB20293EAE7039B012B1BD00E
